:020000023000CC
:10E000000D9489F10D94B2F10D94B2F10D94B2F129
:10E010000D94B2F10D94B2F10D94B2F10D94B2F1F0
:10E020000D94B2F10D94B2F10D94B2F10D94B2F1E0
:10E030000D94B2F10D94B2F10D94B2F10D94B2F1D0
:10E040000D94B2F10D94B2F10D94B2F10D94B2F1C0
:10E050000D94B2F10D94B2F10D94B2F10D94B2F1B0
:10E060000D94B2F10D94B2F10D94B2F10D94B2F1A0
:10E070000D94B2F10D94B2F10D94B2F10D94B2F190
:10E080000D94B2F10D94B2F10D94B2F10D94B2F180
:10E090000D94B2F10D94B2F10D94B2F10D94B2F170
:10E0A0000D94B2F10D94B2F10D94B2F10D94B2F160
:10E0B0000D94B2F10D94B2F10D94B2F10D94B2F150
:10E0C0000D94B2F10D94B2F10D94B2F10D94B2F140
:10E0D0000D94B2F10D94B2F10D94B2F10D94B2F130
:10E0E0000D94B2F12A00593D506F727420626C6930
:10E0F0006E6B00563D73686F7720696E746572723F
:10E1000075707420566563746F727300523D447568
:10E110006D702052414D00513D51756974004C3D68
:10E120004C69737420492F4F20506F7274730048EC
:10E130003D48656C7000463D44756D7020464C410D
:10E14000534800453D44756D7020454550524F4D34
:10E1500000423D426C696E6B204C454400403D4599
:10E160004550524F4D2074657374003F3D435055E8
:10E1700020737461747300303D5A65726F2061645E
:10E18000647200504F5254004545206572722063FE
:10E190006E743D0052656164696E672045450057A5
:10E1A00072697474696E672045450020004D75736F
:10E1B000742062652061206C657474657200506F14
:10E1C0007274206E6F7420737570706F72746564F2
:10E1D000005768617420706F72743A006A6D702025
:10E1E00000726A6D702020006E6F20766563746F18
:10E1F00072005623202020414444522020206F707A
:10E2000020636F64652020202020696E737472750E
:10E210006374696F6E2061646472202020496E749B
:10E2200065727275707400342E392E3200322E30C1
:10E230002E30004A616E2032322032303139004CAB
:10E240006F636B20667573652020203D2000457844
:10E25000742066757365202020203D200048696782
:10E260006820667573652020203D20004C6F772064
:10E2700066757365202020203D20004350552049BD
:10E28000442020202020203D200047434320566585
:10E290007273696F6E203D2000415652204C6962B6
:10E2A00043205665723D20005F5F4156525F4152E8
:10E2B00043485F5F3D2000435055205479706520EE
:10E2C0002020203D2000436F6D70696C6564206FD5
:10E2D0006E203D20004875683F00426F6F746C6F80
:10E2E000616465723E0041726475696E6F20657885
:10E2F000706C6F7265722073746B353030563220DB
:10E300006279204D4C530041546D6567613235365A
:10E31000300011241FBECFEFD1E2DEBFCDBF01E040
:10E320000CBF12E0A0E0B2E0E8EEF6EF03E00BBFB6
:10E3300002C007900D92A430B107D9F722E0A4E003
:10E34000B2E001C01D92A231B207E1F70F94EBF2E7
:10E350000D9472FB01E20EBF0FEF0DBF11241FBE23
:10E360000D94EBF20D9400F08093C6008091C000F4
:10E3700086FFFCCF8091C00080648093C000089528
:10E3800020E030E02817390749F0EFECF7E031974B
:10E39000F1F700C000002F5F3F4FF4CF0895CF93F7
:10E3A000DF93EC01C60FD11DAE0160E070E06BBFE2
:10E3B000FA018791882321F021960F94B4F1F4CFCC
:10E3C000DF91CF9108958DE00F94B4F18AE00D9420
:10E3D000B4F10F94CFF10D94E3F1CF93DF93EC01FF
:10E3E0008991882319F00F94B4F1FACFDF91CF917E
:10E3F0000895CF93C82F982F92959F7080E3890F2F
:10E400008A3310F087E3890F0F94B4F1CF7080E363
:10E410008C0F8A3310F087E38C0FCF910D94B4F1F9
:10E420000F931F93CF93DF93EC018B0185369105FA
:10E430001CF4633071054CF0CE0164E670E00F947B
:10E4400034FB80E3860F0F94B4F1CB30D1051CF47C
:10E45000023011056CF0CE0164E670E00F9434FBDD
:10E460006AE070E00F9434FB80E3860F0F94B4F100
:10E47000CE016AE070E00F9434FB805DDF91CF91B4
:10E480001F910F910D94B4F18091C00087FFFCCFD4
:10E490008091C6000895CF93C82F60E083E891EE85
:10E4A0000F94CFF18C2F0F94B4F1CF910D94E3F131
:10E4B0002F923F924F925F926F927F928F929F9294
:10E4C000AF92BF92CF92DF92EF92FF920F931F9382
:10E4D000CF93DF93CDB7DEB763970FB6F894DEBF67
:10E4E0000FBECDBF8B8B6A017B0100E110E0CE0136
:10E4F00001964C018EE2382E90E1292E280C91E0F5
:10E50000C916D104E906F10418F08E2D0F94F9F123
:10E510008D2D0F94F9F18C2D0F94F9F180E20F9469
:10E52000B4F18DE20F94B4F180E20F94B4F119824A
:10E53000540126013701EB89E13051F028F0E23037
:10E5400059F4F201108108C06BBEF201179104C0AA
:10E55000C2010F945CFB182F812F0F94F9F180E218
:10E560000F94B4F180EE810FF5018F3510F4108314
:10E5700001C03082FFEF4F1A5F0A6F0A7F0A8FEFE8
:10E58000A81AB80A2A10D7CF90E1C90ED11CE11CF5
:10E59000F11C198AC4010F94EDF10F94E3F10150BD
:10E5A00009F0ADCF63960FB6F894DEBF0FBECDBFB6
:10E5B000DF91CF911F910F91FF90EF90DF90CF905F
:10E5C000BF90AF909F908F907F906F905F904F9093
:10E5D0003F902F900895CF93DF93CDB7DEB7C05310
:10E5E000D1400FB6F894DEBF0FBECDBF01E20EBF23
:10E5F0000FEF0DBF94B7F894A89514BE80916000FA
:10E6000088618093600010926000789493FF05C049
:10E61000E0910402F091050219958091C00082609A
:10E620008093C00080E18093C40088E18093C100A2
:10E63000000080E090E0DC0140E050E02091C0006C
:10E6400027FF04C04F5F5F4FB9F317C04115510555
:10E65000C9F725E02A95F1F700000196A11DB11D2B
:10E6600031E020E0813241EA940747E0A407B10598
:10E6700008F430E0432F522FE1CF4130510511F023
:10E680000D9418FBC55DDE4F19821882CB52D14024
:10E69000A12CB12CC65DDE4F1882CA52D14010E0C9
:10E6A000212C312CCA5DDE4F188219821A821B82FE
:10E6B000C652D140C12CD12C760120E030E080E060
:10E6C00041305105C1F041E052E16AE770E09091BC
:10E6D000C00097FD10C04150510961097109B9F797
:10E6E0006BBFFA01479156914F3F5F4F61F3EE27A1
:10E6F000FF270994E8CF9091C600C55DDE4FA88141
:10E70000B981CB52D1401196C55DDE4FB983A88344
:10E71000CB52D140913209F023C51A9708F06EC54B
:10E72000BFEFAB1ABB0AE3E0AE16B10409F068C54F
:10E7300005E010E0F9E1AF2EB12C81E20F94B4F1C5
:10E74000F1E0AF1AB108C9F70F94E3F101501109D4
:10E7500089F710920E0210920F021092100210927E
:10E76000110210920A0210920B0210920C021092E7
:10E770000D021092060210920702109208021092E7
:10E78000090260E086EE92EE0F94E9F11FEF60E07F
:10E790008AED92EE0F94CFF10F9444F2082F803659
:10E7A00008F00F75003230F0802F0F94B4F180E242
:10E7B0000F94B4F1063409F4D3C108F09BC00034BF
:10E7C00009F40CC108F08FC0003309F4F1C00F3315
:10E7D00009F0C0C462E08BE691EE0F94E9F160E0CD
:10E7E00086EE92EE0F94E9F160E086EC92EE0F94E3
:10E7F000CFF160E083E392EE0F94E9F160E087EB04
:10E8000092EE0F94CFF160E087E093EE0F94E9F180
:10E8100060E088EA92EE0F94CFF186E30F94B4F1B2
:10E820000F94E3F160E08AE892EE0F94CFF160E09C
:10E8300087E292EE0F94E9F160E089E992EE0F949D
:10E84000CFF160E08DE292EE0F94E9F160E08BE7AA
:10E8500092EE0F94CFF18EE10F94F9F188E90F94C5
:10E86000F9F181E00F94F9F10F94E3F160E08CE6A7
:10E8700092EE0F94CFF129E0E0E0F0E02093570012
:10E8800084910F94F9F10F94E3F160E08DE592EE3D
:10E890000F94CFF129E0E3E0F0E02093570084915A
:10E8A0000F94F9F10F94E3F160E08EE492EE0F948F
:10E8B000CFF1E2E0F0E039E03093570084910F941B
:10E8C000F9F10F94E3F160E08FE392EE0F94CFF152
:10E8D000E1E0F0E049E04093570084910F94F9F1B2
:10E8E0000F94E3F154CF023409F4F6C0053409F46F
:10E8F0000DC130C4013509F497C168F5083409F435
:10E9000053C10C3409F026C462E08EE191EE0F94FD
:10E91000E9F181E40F944BF282E40F944BF283E42B
:10E920000F944BF284E40F944BF285E40F944BF276
:10E9300086E40F944BF287E40F944BF288E40F9433
:10E940004BF28AE40F944BF28BE40F944BF28CE47D
:10E950000F944BF21CCF063509F470C1093509F448
:10E96000FFC2023509F0F6C362E08CE091EE0F942D
:10E97000E9F140910E0250910F02609110027091E6
:10E98000110282E00F9458F280910E0290910F02D2
:10E99000A0911002B09111029F5FAF4FBF4F8093C3
:10E9A0000E0290930F02A0931002B0931102EFCECB
:10E9B00062E087E791EE0F94E9F110920A0210925B
:10E9C0000B0210920C0210920D0210920E02109285
:10E9D0000F02109210021092110272C062E08DE5D7
:10E9E00091EE0F94E9F160E08FE991EE0F94E9F177
:10E9F0000F94E3F1A12CB12CC5018A519D41A0E0F7
:10EA0000B0E0ABBFFC0107910A3281F40F94E3F14F
:10EA10000F94E3F160E084E991EE0F94E9F10F9433
:10EA2000E3F1812C912CA12CB12C2EC0A11482E0F9
:10EA3000B80661F3602FC5010F9464FB011106C095
:10EA400060E08BEA91EE0F94CFF103C0802F0F941A
:10EA5000B4F15FEFA51AB50ACFCFA114B2E0BB069F
:10EA6000E9F0C5010F945CFB782E811132C060E0A3
:10EA70008BEA91EE0F94CFF1701619F09FEF891A7F
:10EA8000990AAFEFAA1ABA0AC5018A519D41A0E0BE
:10EA9000B0E0ABBFFC0107910A32F9F60F94E3F145
:10EAA0000F94E3F160E088E891EE0F94CFF161E01C
:10EAB00070E0C4010F9410F20F94E3F10F94E3F1AE
:10EAC0001092060210920702109208021092090298
:10EAD0005ECE0F94B4F1D0CF62E081E591EE0F9459
:10EAE000E9F1279A2F9A8091C00087FD0CC02F98DA
:10EAF00084E690E00F94C0F12F9A84E690E00F94A2
:10EB0000C0F1F1CF12B80F9444F241CE62E083E439
:10EB100091EE0F94E9F14091060250910702609145
:10EB200008027091090281E00F9458F28091060268
:10EB300090910702A0910802B09109029F5FAF4F28
:10EB4000BF4F8093060290930702A0930802B093F0
:10EB5000090281159041A105B10508F418CEB0CF86
:10EB600062E086E391EE0F94E9F140910A02509140
:10EB70000B0260910C0270910D0280E00F9458F22C
:10EB800080910A0290910B02A0910C02B0910D02AB
:10EB90009F5FAF4FBF4F80930A0290930B02A093E9
:10EBA0000C02B0930D02F3CD62E08FE291EE0F9470
:10EBB000E9F160E087E791EE0F94E9F160E08BE620
:10EBC00091EE0F94E9F160E08DE591EE0F94E9F19B
:10EBD00060E081E591EE0F94E9F160E083E491EE6D
:10EBE0000F94E9F160E086E391EE0F94E9F160E0C3
:10EBF0008FE291EE0F94E9F160E08EE191EE0F94D7
:10EC0000E9F160E087E191EE0F94E9F160E08CE0DA
:10EC100091EE0F94E9F160E083EF90EE0F94E9F14B
:10EC200060E086EE90EE99C262E087E191EE0F948B
:10EC3000E9F1A12CB12C99249394F5C262E083EF01
:10EC400090EE0F94E9F160E087E093EE0F94E9F124
:10EC500060E082EF91EE0F94E9F1CE5DDE4F198214
:10EC60001882C252D140412C512C3201A301920191
:10EC70005695479537952795C25EDE4F2883398391
:10EC80004A835B83CE51D140CE5DDE4F48815981AE
:10EC9000C252D1404F5F5F4FCE5DDE4F59834883F4
:10ECA000C252D14062E070E0CA010F9410F280E2DB
:10ECB0000F94B4F18DE20F94B4F180E20F94B4F1AB
:10ECC00080E00F94F9F1C25EDE4F8881CE51D140D1
:10ECD0000F94F9F180E20F94B4F18DE30F94B4F145
:10ECE00080E20F94B4F16BBEF201A790D301C20190
:10ECF0000196A11DB11DABBFFC019790D301C201CC
:10ED00000296A11DB11DABBFFC01B790D301C2019A
:10ED10000396A11DB11DABBFFC01079154E0450E48
:10ED2000511C611C711C492D50E060E070E0762F91
:10ED3000652F542F44274A0D511D611D711D892DCA
:10ED4000C35DDE4F4883CD52D140C25DDE4F588354
:10ED5000CE52D140C15DDE4F6883CF52D140C05DFD
:10ED6000DE4F7883C053D1400F94F9F180E20F94C5
:10ED7000B4F18A2D0F94F9F180E20F94B4F1802F51
:10ED80000F94F9F180E20F94B4F18B2D0F94F9F107
:10ED900080E20F94B4F1C35DDE4F4881CD52D14083
:10EDA000C25DDE4F5881CE52D140C15DDE4F6881D9
:10EDB000CF52D140C05DDE4F7881C053D1404F3F2C
:10EDC0008FEF58076105710531F460E088EE91EE30
:10EDD0000F94CFF1B8C0DB01CA018827907CAA2725
:10EDE000BB278115904CA105B10599F54A015B013E
:10EDF000FFE39F22AA24BB24C25EDE4F8881998153
:10EE0000AA81BB81CE51D140880D991DAA1DBB1D81
:10EE10009C01AD01220F331F441F551FC25EDE4F00
:10EE2000288339834A835B83CE51D14060E081EEF1
:10EE300091EE0F94CFF1892D0F94F9F1882D0F9455
:10EE4000F9F180E20F94B4F18EE30F94B4F180E015
:10EE50006AC04E705E7F662777274C305449610543
:10EE6000710509F070C0802F90E0A0E0B0E0BA2FEB
:10EE7000A92F982F88278B0D911DA11DB11D4A2DFB
:10EE8000417050E060E070E0BA0155274427480F18
:10EE9000591F6A1F7B1F8A2D807F90E0A0E0B0E0A1
:10EEA000F1E1880F991FAA1FBB1FFA95D1F7840FB4
:10EEB000951FA61FB71F292D2170822E912CA12CE2
:10EEC000B12C05E1880C991CAA1CBB1C0A95D1F732
:10EED000880E991EAA1EBB1EA5019401220F331F86
:10EEE000441F551FC25EDE4F288339834A835B83EC
:10EEF000CE51D14060E08CED91EE0F94CFF18A2D90
:10EF00000F94F9F1892D0F94F9F1882D0F94F9F1EF
:10EF100080E20F94B4F18EE30F94B4F1C05EDE4F43
:10EF20008881C052D1400F94F9F1C15EDE4F8881D3
:10EF3000CF51D1400F94F9F1C25EDE4F8881CE519E
:10EF4000D1400F94F9F10F94E3F1CE5DDE4F48818B
:10EF50005981C252D1404933510509F087CE17CCAF
:10EF600062E086EE90EE0F94E9F160E081ED91EEC3
:10EF70000F94CFF10F9444F2082F0F75802F0F9448
:10EF8000B4F10F94E3F18FEB800F8A3108F0DEC00B
:10EF9000063409F471C098F4033409F441C038F41C
:10EFA000013419F1023409F0CDC014B92BC0043476
:10EFB00009F445C0053409F0C5C01DB94FC00A3475
:10EFC00009F489C048F4073409F465C0083409F02D
:10EFD000B9C0109301016EC00B3409F48FC00C341A
:10EFE00009F0B0C010930A019CC011B98091C00013
:10EFF00087FD88CD82B1809582B988EC90E00F942E
:10F00000C0F1F4CF8091C00087FD08C085B1809524
:10F0100085B988EC90E00F94C0F1F4CF15B873CDAA
:10F0200017B98091C00087FD08C088B1809588B964
:10F0300088EC90E00F94C0F1F4CF18B864CD1AB901
:10F040008091C00087FD08C08BB180958BB988EC9A
:10F0500090E00F94C0F1F4CF1BB855CD8091C00063
:10F0600087FD08C08EB180958EB988EC90E00F9432
:10F07000C0F1F4CF1EB847CD10BB8091C00087FD12
:10F0800008C081B3809581BB88EC90E00F94C0F1FB
:10F09000F4CF11BA38CD13BB8091C00087FD08C0F2
:10F0A00084B3809584BB88EC90E00F94C0F1F4CFDA
:10F0B00014BA29CD8091C00087FD0AC08091020159
:10F0C00080958093020188EC90E00F94C0F1F2CF1C
:10F0D0001092020118CD109304018091C00087FDA9
:10F0E0000AC08091050180958093050188EC90E02D
:10F0F0000F94C0F1F2CF1092050105CD10930701D6
:10F100008091C00087FD0AC080910801809580939E
:10F11000080188EC90E00F94C0F1F2CF1092080142
:10F12000F2CC8091C00087FD0AC080910B018095D0
:10F1300080930B0188EC90E00F94C0F1F2CF109215
:10F140000B01E1CC60E08EEB91EE07C060E08DEA50
:10F1500091EE03C060E085ED92EE0F94E9F117CBDC
:10F16000833049F120F4813099F050F01BC0853094
:10F1700089F138F1863009F050C0A12CB12C4AC079
:10F18000A12CB12C9B3109F461C240E050E098CA37
:10F19000A12CB12C1927C65DDE4F9883CA52D140ED
:10F1A00082E0F3CFA12CB12C292F30E0322F22277F
:10F1B000192783E0EACFA12CB12C292B192784E051
:10F1C000E4CFA12CB12C9E3009F04CC21927212C80
:10F1D000312C40C2A12CB12CA1014F5F5F4FE1E067
:10F1E000F0E0EC0FFD1FE20DF31D9083192742178D
:10F1F000530709F02EC2190186E0C7CFA12CB12C0C
:10F200008330D9F208F428C2853031F308F42AC2D9
:10F21000863029F4911326C205C0A12CB12C873069
:10F2200009F0B3CF912C2981233109F4DBC060F5BB
:10F23000263009F4C5C0F8F4223009F468C123303F
:10F2400009F464C0213009F0ADC11A8288E08B83D3
:10F2500081E48C8386E58D8382E58E8389E48F83C8
:10F2600083E5888780E589878FE58A8782E38B87B6
:10F270000BE010E09BC1213109F455C008F093C0A8
:10F28000203109F444C18EC1283109F466C048F424
:10F29000253109F4A7C008F43CC1263109F439C16D
:10F2A00081C12A3109F44DC008F46CC02B3109F436
:10F2B0003DC02D3109F076C19D81903339F48F81A5
:10F2C0008823B1F08130B1F081E017C0892F8075BB
:10F2D00099F0903521F489E0E0E0F0E005C0983540
:10F2E00059F4E3E0F0E089E080935700849105C091
:10F2F0008EE103C088E901C080E01A821B829C83F2
:10F300001D828E831F8207E010E050C1EA81E05920
:10F31000E33028F4F0E0E050FE4F808101C080E04F
:10F320001A828B833DC099249394F1C08D818823E8
:10F3300021F0813021F081E023C08EE121C088E9F5
:10F340001FC01A82E1E0F0E089E0809357008491C9
:10F350008B831C8204E010E029C18B81803551F43D
:10F360008C81883019F4E2E0F0E006C089E0E0E04A
:10F37000F0E003C0E3E0F0E089E08093570084917F
:10F380001A82E6CF8D81836C99E0E1E0F0E0082EEF
:10F3900090935700E89507B600FCFDCF1A821B82B8
:10F3A00003E010E003C180EC8A8302E010E0CA5D54
:10F3B000DE4F188219821A821B82C652D140F6C0D3
:10F3C0008A81CB80D12CE12CF12C7601DD24CC2458
:10F3D000F82A8D81C82A8C81D82ACC0CDD1CEE1C21
:10F3E000FF1C95C00A8110E0102F00278B81082B8D
:10F3F000233109F05AC0CA5DDE4F288139814A8124
:10F400005B81C652D140211580EC380783E0480764
:10F410005105E8F483E0F90140935B0080935700C5
:10F42000E89507B600FCFDCFCA5DDE4F2881398123
:10F430004A815B81C652D1403F5F4F4F5F4FCA5DEB
:10F44000DE4F288339834A835B83C652D1408B8544
:10F45000B701A601DE011B9621E01296FD0131974E
:10F46000308190E0932B0C01FA0160935B002093B4
:10F470005700E89511244E5F5F4F6F4F7F4F02504A
:10F48000110911F08C91E9CF85E0F601E0925B0063
:10F4900080935700E89507B600FCFDCF81E180938B
:10F4A0005700E8956A017B0132C0A7019601569585
:10F4B000479537952795CE5DDE4F288339834A835C
:10F4C0005B83C252D1403E013BE0630E711C412C74
:10F4D000512C4016510689F0D3016D913D01CE5D4E
:10F4E000DE4F88819981C252D140840D951D0F94C1
:10F4F00064FBBFEF4B1A5B0AECCF612C712C440C00
:10F50000551C661C771CC40CD51CE61CF71C1A8203
:10F510004BC08A8190E0982F88273B81832B8C01F8
:10F520000D5F1F4F1A82243199F4DE011396EBBE52
:10F53000F601279136912C931296FD013197308375
:10F54000E2E0CE0ED11CE11CF11C029781F728C02D
:10F55000FE0133969C01B701A60141BD452E562EF2
:10F56000672E772442BC4F5F5F4F6F4F7F4FF89AF3
:10F57000A0B5A1932150310981F7AC014150510947
:10F5800060E070E04F5F5F4F6F4F7F4FC40ED51E3E
:10F59000E61EF71EA3E0B0E0AC0FBD1FA80FB91F19
:10F5A0001C9204C080EC8A8302E010E08BE10F948F
:10F5B000B4F1C65DDE4F8881CA52D1400F94B4F1D8
:10F5C000812F0F94B4F1802F0F94B4F185E1C65DC3
:10F5D000DE4F8880CA52D140882680268EE00F9464
:10F5E000B4F181269E012F5F3F4F3901020F131F97
:10F5F0006016710641F0D3015D903D01852D0F9499
:10F60000B4F18524F5CF182D882D0F94B4F1C65D83
:10F61000DE4F2881CA52D1402F5FC65DDE4F28835E
:10F62000CA52D14040E050E0992011F40D945DF3AE
:10F6300000008091C0008D7F8093C00081E18093A5
:10F640005700E895EE27FF270994FFCF1BE181E0E3
:10F650009CCD1A0185E099CD813009F49BCD08F449
:10F6600094CDA2CD80E091CD97FB072E16F40094A7
:10F6700007D077FD09D00F9448FB07FC05D03EF476
:10F68000909581959F4F0895709561957F4F08954E
:10F69000AA1BBB1B51E107C0AA1FBB1FA617B707B8
:10F6A00010F0A61BB70B881F991F5A95A9F78095D4
:10F6B0009095BC01CD010895F999FECF92BD81BD11
:10F6C000F89A992780B50895262FF999FECF1FBA89
:10F6D00092BD81BD20BD0FB6F894FA9AF99A0FBE7B
:08F6E00001960895F894FFCF94
:04F6E8000F020A0003
:040000033000E000E9
:00000001FF
